:020000020000FC
:100000000C942E000C942E000C94D00C0C941D0D0E
:100010000C942E000C94390D0C942E000C942E0090
:100020000C942E000C942E000C949D0C0C942E001D
:100030000C942E000C942E000C942E000C942E0088
:100040000C942E000C942E000C942E000C942E0078
:100050000C942E000C942E000C942A0DF89404E0BD
:100060000EBF0FEF0DBF22240EE011EF04B915B93A
:1000700004E218E30DB91EB900E010EF00BB11BB9C
:100080000FE000937E000EE0009364002A9AB1E036
:10009000A0E02D92B430E9F707EB0093E50003E010
:1000A0000093E6000EEE0093E70008EC0093E400F6
:1000B00063E001E400937C0003E100937A0007E031
:1000C00000937E0001EF00936C0003E000936B004F
:1000D00000EC0DBB09E004BD03E007BD03E00093A5
:1000E000B00001E00093700008E00093B6007724B0
:1000F00004E00093230103E2009304010FEF009357
:1001000018010AE000930D0120920E0108EC009303
:1001100024012092250100EA0093150101E00093DB
:10012000160175982A982ED0789437D057D4F39921
:100130000E947C0DF39B22D2F39B77D2F39BEAD5EE
:1001400051D015D545D50E94990D02D3603029F4C0
:1001500003B1017811F42F9828982A9807E003BF7B
:1001600088952F9A289A06E003BF2A9ADFCFAAE142
:10017000B1E010EE81E095E00D919AD113959A953A
:10018000D9F70895AAE1B1E010EE81E095E087D1BA
:100190000D9313959A95D9F7089505E000933001D2
:1001A00008EC00932E0100916E00026000936E0037
:1001B00000916E0001FDFCCF0FEF009314010AE0E7
:1001C00000930D0120920E0100EA009315010093A7
:1001D0000F0101E00093160100931001209212011B
:1001E000F39A08950AB504FF0895839A8B9A03E45D
:1001F00000937C0000000000000004EC00937A00F3
:1002000000917A0006FDFCCF0091780010917900F2
:10021000009321011093220101E400937C0000006F
:100220000000000004EC00937A0000917A0006FDC3
:10023000FCCF0AB50F7E0ABD83988B9804E000932B
:100240007A000091780010917900009302011093D8
:10025000030180EE882E8EE2982E809121019091EC
:100260002201801B910B199D7001089D6001189D52
:10027000D00CE11CF21C909ED00CE11CF21C21E081
:1002800000271127C81AD90AE208F20818F0020F4D
:10029000121DF8CFFCE1E8EC85919591329780171B
:1002A000910718F4CC24DD242FC022E38EECC82E55
:1002B0008FEFD82E859195918030920541F080176F
:1002C000910748F0E82EF92EC20ED21CF3CF0FEFA3
:1002D000C02ED02E19C0EF92FF92E81AF90A81E0E1
:1002E000882E88279927E21AF20818F0880D921DA7
:1002F000FACF21E0FF90EF90E81AF90AE016F10634
:100300001CF0C20ED21CF8CFC0920001D0920101A5
:10031000F39B01D008950091000110910101C0905C
:100320002401D0902501C01AD10A860112F40027B9
:100330001127009326011093270100912A011091A3
:100340002B010C0D1D1D12F40027112780910F01A8
:1003500090911001969587950817190708F08C0160
:1003600000932A0110932B0120E3EE240A0360017D
:10037000E21C1A03D01CE11C0D2D1E2DC09026017D
:10038000D0902701222784E0C816D20408F026E482
:100390008CE0C89E7001D89EF00C0E0D1F1D020F40
:1003A000121D009328011093290180910F01909153
:1003B0001001801B910B3AF000910D0110910E017C
:1003C0008017910720F480910D0190910E01F29910
:1003D000089580930B0190930C01F09A0895102FCB
:1003E000107F1295D12E10E3D10E1AE3D11610F022
:1003F00017E0D10E102F1F70C12E10E3C10E1AE3AB
:10040000C11610F017E0C10E0895CC24DD24EE24AF
:10041000FF24083E83E0180720F0085E1340F394A1
:10042000F8CF043680E0180720F004561040E3941B
:10043000F8CF0A3018F00A50D394FBCFC02E00E357
:10044000F00EE00ED00EC00E0895CC24DD24EE2474
:10045000043618F00456E394FBCF0A3018F00A5023
:10046000D394FBCFC02E00E3E00ED00EC00E089553
:10047000EE24DD24CC240C3318F00C53E394FBCF92
:10048000063018F00650D394FBCFC02EECCFCC240E
:10049000063018F00650C394FBCF0C2D0895F9993F
:1004A000FECFF89482BD11BDF89A00B578940895F6
:1004B000F999FECFF89482BD11BD00BDFA9AF99A60
:1004C000789408950C910F9335D084E0A091350174
:1004D000B091360190E00D91DADF091721F0939584
:1004E0009831C9F0FACF0E9111961C910117F8F4CA
:1004F000092F006810E33DD10D910A95C8DF0395DF
:10050000091749F00F93092F006810E332D10F91BA
:1005100093959831A9F78A95E9F60F91B8DF0F9373
:1005200010E227D10F91006810E123D108951196B0
:10053000F2CF089520924101209255012092460168
:1005400020925A0100914B01007800934B010091D9
:100550005F01007800935F01009150010F7B0093D1
:100560005001009164010F7B009364010895A0E4A1
:10057000B1E018E22D921A95E9F70895F6990895D9
:1005800000912001002329F1053009F04DC00091B0
:1005900024011091250139DF0E2D10E17AD00D2DA7
:1005A00078D00C2D76D000E474D00FE310E271D037
:1005B0000FE36FD00FE36DD00FE36BD000914701D5
:1005C0000F770093470100915B010F7700935B0168
:1005D00017C000913301002339F500912C010770F9
:1005E000003011F500910001109101010EDF0E2D78
:1005F00010E34FD00D2D4DD00C2D4BD000E449D041
:10060000009150010F7700935001009164010F7722
:100610000093640100914701006800934701009135
:100620005B01006800935B010895F69908950091BD
:100630002001003069F500913301002349F5009154
:100640002C010770043021F5009147010F770093CA
:10065000470100915B010F7700935B0100911B0143
:10066000F4DE0D2D003309F40FE310E312D00C2D4E
:1006700011E30FD000911A01E8DE0D2D12E309D02D
:100680000C2D13E306D00091500100680093500137
:1006900008950053CF92DF92EF93FF93AF93BF93F0
:1006A0001F93912F107F1295113029F0123039F0DD
:1006B000133049F012C0A0E4B1E018D00EC0A4E598
:1006C000B1E014D00AC0A0E4B1E00F939F930ED024
:1006D000A4E5B1E09F910F9109D01F911395BF91AF
:1006E000AF91FF91EF91DF90CF900895F9E0E2E3B1
:1006F00082E0089FE00DF11DD590C490F8E0EAEF8C
:100700008EE09F70989FE00DF11D9EE0C0FAD69498
:10071000C7941591012F187F169516951695AF93CE
:10072000BF93A10FB21D8C91102F177001E01030F4
:1007300019F0000F1A95FBCF26F0009580238C93BB
:1007400002C0802B8C93BF91AF919A95F9F60895D2
:1007500014E10091330101FD03C0A0E4B1E002C047
:10076000A4E5B1E0CCEED0E00D9109931A95E1F744
:100770000895EF93FF93E8E8F9E009C0EF93FF9342
:10078000F9E0E0EA04C0EF93FF93E8EAF9E0AF9301
:10079000BF931F938F93107F1295113029F0123061
:1007A00039F0133049F012C0A0E4B1E016D00EC009
:1007B000A4E5B1E012D00AC0A0E4B1E00F93EF933A
:1007C000FF930BD0FF91EF910F91F2CF8F911F917B
:1007D000BF91AF91FF91EF91089507FB0F71E00F6B
:1007E000F21D1591012F187F169516951695A10FDC
:1007F000B21D8C91102F177001E0103019F0000F0E
:100800001A95FBCF26F0009580238C930895802BBA
:100810008C9308950091500100680093500100915D
:1008200064010068009364010895009150010F77FE
:1008300000935001009164010F77009364010895C3
:100840000091470100680093470100915B01006837
:1008500000935B010895009147010F7700934701D2
:1008600000915B010F7700935B01089500915001A7
:10087000109164010F73107C102B10936401009190
:100880004B0110915F0100781F77102B10935F01CF
:10089000089580915001807C809350018091640183
:1008A000807C8093640180914B018F7780934B0112
:1008B00080915F018F7780935F01089500914301DC
:1008C0000E7F00934301009157010E7F0093570163
:1008D000009148010E7F0093480100915C010E7F5A
:1008E00000935C0100914D010E7F00934D0100913A
:1008F00061010E7F0093610108957E7C2C05077FC6
:100900002F5557567D2D2E067B79010204542B510D
:1009100053527A292A03898B3B121088386260610E
:100920008A3A39118C8E161513633C6664658D3EC8
:100930003D14243F040600DB008F00E600ED00FDBF
:10094000140100FF00EF00C022000C0000C81100DD
:10095000000000E300F7128F0039120F00790071D8
:1009600000BD00F61209001E0C700038053609366D
:10097000003F00F3083F08F300ED1201003E243071
:1009800028322D001C0024095830080931595A32E8
:100990000A0B335B5C340C0D355D865E360E0F370B
:1009A0008081828384855F00005078281718406812
:1009B00090678F000091370110E3DBDE0091370173
:1009C0000395009337010F77083139F4009137010F
:1009D000007810E80127009337010895F39B0895EC
:1009E000F19B3CC00091090110910A0104311205EC
:1009F00071F4809113018093140180914B01816007
:100A000080934B0180915F01816080935F01F19B36
:100A100025C08091130190911401891B08F4882747
:100A20008A30E0F0802F912F0296809315019093E9
:100A3000160180910D0190910E018A30920571F49A
:100A400000930D0110930E01009146010160009387
:100A5000460100915A01016000935A01F2990895EC
:100A600010911201103039F0123011F11430A1F14F
:100A70001630E9F1089500E000930B0100E10093C6
:100A80000C01F09A1395109312010CE310E101DEB2
:100A90000FE3FFDD0CE3FDDD0FE3FBDD0FE310E211
:100AA000F8DD0CE3F6DD0FE3F4DD0CE3F2DD089591
:100AB000F49B0895F498009105010430D1F704E007
:100AC0000093120101E410E3E4DD04E4E2DD01E45B
:100AD000E0DD00E5DEDD089500E000930B0100E2BB
:100AE00000930C01F09A1395109312010895009150
:100AF000090110910A010A50120900930F01109385
:100B00001001F3982092120100930B0110930C0135
:100B1000F09A00914B010E7F00934B0100915F0111
:100B20000E7F00935F01009146010E7F0093460106
:100B300000915A010E7F00935A0103E000931801BF
:100B40002092200120922C01209233010E94200E3D
:100B500000689FDE10E312DE009140010160009307
:100B60004001009154010160009354010895F09BED
:100B7000089508EC0093E40063E0759A0091110178
:100B800006FD21C000910B0110910C01809109011B
:100B900090910A01103149F0103271F080179107DD
:100BA00058F00817190708F00895F2990895729AF5
:100BB000F198209211010895F2990895729AF19A8C
:100BC000209211010895002700680093110132C09E
:100BD000009111010F73043168F0F2987298F19945
:100BE00008950091110107FD0895209209012092B6
:100BF0000A0108950A30F0F4F09B0895F29AF19BEF
:100C000012C00091090110910A0180911501909183
:100C100016010817190770F46F9877980000000004
:100C20006E9A769A08956E987698000000006F9AF2
:100C3000779A0895F09B08956E9876986F987798B4
:100C4000F098F39B089500911201013091F409E4AA
:100C500010E11FDD0EE41DDD03E51BDD04E519DDFC
:100C60000FE310E216DD0FE414DD0BE412DD0FE3F9
:100C700010DD00911201039500931201089503B154
:100C80000095017F0295102F1770103021F41093FA
:100C90000501F49803C010930501F49A08710695B4
:100CA0000695069510910701102B110F110F1C735B
:100CB00010930701143071F0183361F0183089F087
:100CC000143379F000910801007C003889F0003479
:100CD000C1F00895009108010F73006800930801A6
:100CE0000895009108010F730064009308010895AE
:100CF0001C3119F0103209F0089503E00093080147
:100D000008951C3219F0103109F0089502E00093A3
:100D1000080108950091080101FD2BC0F49B08957E
:100D2000F49800910501013019F00430E9F00895BC
:100D3000F6990AC0F69A209232012092310175DDAF
:100D40008ADD00E050D00895F698F79820922001AF
:100D500020922C012092330100911F01006899DD3F
:100D600010E30CDDABDD0895F69B089503E03BD066
:100D700008950D7F0093080100FD07C0F69902C099
:100D800020D0089501E02FD00895F69902C004D034
:100D9000089502E028D008950091240110912501C2
:100DA00081E00C32180749F085E0080F121D00930E
:100DB000240110932501809320010AE0009318017B
:100DC0000895009124011091250180E00832180750
:100DD000A1F305501209009324011093250185E029
:100DE00080932001EACF64E1759AF799BBC0003087
:100DF00051F0013029F0023021F0033019F008954C
:100E000055C07BC09AC04427E2EFFCE190913201CB
:100E100080913101159105910817190711F40027E8
:100E2000A1C01F3F11F04395F5CF00913101003073
:100E300071F10F7099F410E100913101003141F02E
:100E4000F59B04C0010F39F4010F05C0011B19F413
:100E500020923101089500933101D5CF00913101E5
:100E60000F70013049F0F59B05C003950F7039F400
:100E7000039505C00A9519F4209231010895109147
:100E80003101107F0F70102B10933101BCCF0091F6
:100E900032010F3F29F02092320120923101B3CF6D
:100EA0000AE00093320120923101ADCFF598009114
:100EB0003101007FE1F0009131010F7079F02B9842
:100EC000009131010A950F7009F40A9510913101D2
:100ED000107F0F70102B1093310195CF00913101CD
:100EE00010E1011B09F4011B009331018CCF00912B
:100EF00032010A950093320186CFF59A00913101B3
:100F0000007FA9F0009131010F7041F02B9A009100
:100F1000310103950F70D1F60395D8CF00913101BF
:100F200010E1010F09F4010F009331016CCF009122
:100F3000320103950093320166CF00913101007FA9
:100F400029F0009131010F7039F0089500913101BD
:100F5000005F0093310157CF009131010F5F009383
:100F6000310151CFE7EBF7E0E40FF21D099489C09E
:100F700092C0A4C0AAC0BCC0C2C0CBC07DC107C2C1
:100F80000DC205C20BC203C209C201C20EC2D8C043
:100F900073C1FDC103C2FBC101C2F9C1FFC1F7C1E9
:100FA00004C2DCC069C1F3C1F9C1F1C1F7C1EFC12D
:100FB000F5C1EDC1FAC1E0C05FC1E9C1EFC1E7C150
:100FC000EDC1E5C1EBC1E3C1F0C1E4C055C1DFC172
:100FD000E5C1DDC1E3C1DBC1E1C1D9C1E6C1E8C002
:100FE0004BC1D5C1DBC1D3C1D9C1D1C1D7C1CFC1DB
:100FF000DCC1ECC041C1CBC1D1C1C9C1CFC1C7C1E6
:10100000CDC1C5C1D2C1F0C037C1C1C1C7C1BFC107
:10101000C5C1BDC1C3C1BBC1C8C1FCC02DC1B7C121
:10102000BDC1B5C1BBC1B3C1B9C1B1C1BEC10AC1A6
:1010300023C1ADC1B3C1ABC1B1C1A9C1AFC1A7C1CA
:10104000B4C1BAC1C3C1C2C1FEC107C238C26EC2F7
:10105000A9C2E0C21AC327C350C333C34EC33FC3A0
:101060004CC35EC36BC378C385C388C395C394C3A5
:1010700093C3A0C3ADC3BAC3C7C3D4C3E1C3FEC344
:101080001EC40DE410E305DB0FE403DB04E401DB25
:1010900005E4FFDA08950DE410E1FBDA01E4F9DA82
:1010A0000EE4F7DA05E5F5DA0FE310E2F2DA0FE322
:1010B000F0DA0FE3EEDA0FE3ECDA089501E010E383
:1010C00062DB02E810E35FDB3FCE01E410E1E1DA2E
:1010D00005E5DFDA04E5DDDA0FE4DBDA0FE310E241
:1010E000D8DA0FE3D6DA0FE3D4DA0FE3D2DA0895D1
:1010F00002E010E348DB01E810E345DB25CE00E524
:1011000010E3C7DA02E5C5DA0FE4C3DA07E4C1DAAF
:10111000089504E510E1BDDA01E4BBDA07E4B9DAC9
:1011200001E3B7DA0FE310E2B4DA0FE3B2DA0FE368
:10113000B0DA0FE3AEDA00E8ACDB10E11FDB0895B4
:1011400004E510E1A6DA01E4A4DA07E4A2DA02E396
:10115000A0DA01E89EDB10E111DB089504E510E15F
:1011600098DA01E496DA07E494DA03E392DA02E823
:1011700090DB10E103DB089504E510E18ADA01E475
:1011800088DA07E486DA04E384DA03E882DB10E134
:10119000F5DA089504E510E17CDA01E47ADA07E48F
:1011A00078DA05E376DA04E874DB10E1E7DA08952B
:1011B00004E510E16EDA01E46CDA07E46ADA06E3CA
:1011C00068DA05E866DB10E1D9DA089504E510E194
:1011D00060DA01E45EDA07E45CDA07E35ADA06E88B
:1011E00058DB10E1CBDA089504E510E152DA01E3AF
:1011F00050DA0AE34EDA05E34CDA00E84ADB10E1A4
:10120000BDDA01E8BBDA02E8B9DA03E8B7DA04E8E4
:10121000B5DA089504E510E13CDA01E33ADA0AE3CD
:1012200038DA06E336DA00E834DB10E1A7DA01E861
:10123000A5DA02E8A3DA03E8A1DA04E89FDA05E810
:101240009DDA089504E510E124DA01E322DA0AE3E5
:1012500020DA07E31EDA00E81CDB10E18FDA01E890
:101260008DDA02E88BDA03E889DA04E887DA05E840
:1012700085DA06E883DA0895F79A0F93F7DA05E836
:1012800010E381DAC7DAA8E6B1E00091310101513B
:10129000102F0F70107F129589E0189FA00DB11DBF
:1012A000A0933501B0933601A00FB21D1C910F9190
:1012B000013031F0023049F0033009F00AC038C083
:1012C0001A951E3F31F41FE804C01395103909F434
:1012D0001FEF1C931F3FC9F0012FCAD80E2D0033FA
:1012E00009F40FE310E1D5D90D2DD3D90C2DD1D9A7
:1012F00000E3CFD910E20FE3CCD90FE3CAD90FE353
:10130000C8D90FE3C6D9DED808950AE310E1C1D9E0
:101310000AE3BFD90AE3BDD90AE3BBD910E20FE360
:10132000B8D90FE3B6D90FE3B4D90FE3B2D9089512
:101330007CDAF798009131010170B1F40E910F3F02
:1013400099F411960D910F3F79F4009131010F70CE
:1013500008501FEF1D930395E9F700913101007FBD
:10136000085F00933101F8CD009131010F70093011
:1013700009F0F2CD00913101007F003808F0C0D2B1
:101380009DDA00913101007F00933101DFCDF79AA2
:101390000F9394DA06E810E3F6D974CFF79A0F9317
:1013A0008DDA05E810E3EFD96DCFF79A0F9386DA5F
:1013B00007E810E3E8D966CF04E510E36AD905E44D
:1013C00068D90DE466D900E564D90895F79AA0912B
:1013D0003801B0913901013029F0023051F0033069
:1013E00069F10EC01597A832B20550F4A8E2BB27E8
:1013F00007C0159681E0AE35B80710F0AEE5B1E054
:10140000A0933801B09339018D010E9405020E2D81
:1014100010E13FD915DA0D2D3CD90C2D3AD900E455
:1014200038D910E20FE335D90FE333D90FE331D9BF
:101430000FE32FD905E810E3A6D90895F798209275
:10144000310109DAE0CC0AE510E323D905E421D91A
:1014500009E41FD904E51DD90895F79A10911E01DA
:10146000013029F0023041F0033039F109C01A95FA
:101470001F3F31F413E604C01395143609F4112705
:1014800010931E01012F0E94250202E310E101D9F1
:1014900000E3FFD80D2DFDD80C2DFBD810E20FE393
:1014A000F8D80FE3F6D80FE3F4D80FE3F2D8C8D397
:1014B0000068EFD910E362D90895F79847CDF79AFD
:1014C00010911D01013029F0023041F0033061F12B
:1014D00009C01A951F3F31F41BE004C013951C305E
:1014E00009F4112710931D0100911C0103950E941E
:1014F00025020D2D10E3CDD80C2DCBD8A1D90FE3AB
:1015000012E2C7D80FE3C5D800911D0103950E94D0
:1015100025020D2D12E1BDD80C2DBBD891D300684A
:10152000B8D910E32BD90895F79810CDF79A809188
:101530001C01013029F0023051F0033081F10CC060
:10154000A7D38A958F3F41F4812F8A9505C0A0D3F8
:101550008395811709F4882780931C0100911C0151
:1015600003950E9425020D2D10E193D80C2D91D8E2
:101570000FE310E28ED80FE38CD800911D01039584
:101580000E9425020D2D12E30E9449030C2D0E949A
:10159000490356D300687DD910E3F0D80895F79831
:1015A0005AD9D4CCF79A10911B01013029F002309E
:1015B00041F0033069F109C01A951F3F31F417E17A
:1015C00004C01395183109F4112710931B01012F42
:1015D0000E9425020D2D003309F40FE310E10E9453
:1015E00049030C2D0E9449030FE310E20E944903B6
:1015F0000FE30E9449030ED900911A010E942502AF
:101600000D2D12E30E9449030C2D0E9449030895F9
:10161000F7989CCCF79A10911A01013029F002300A
:1016200041F0033069F109C01A951F3F31F41BE303
:1016300004C013951C3309F4112710931A0100916B
:101640001B010E9425020D2D003309F40FE310E366
:101650000E9449030C2D0E94490300911A010E9427
:1016600025020D2D12E10E9449030C2D0E94490311
:101670000FE312E20E9449030FE30E944903089519
:10168000F79820923101D1D8BECB06E410E30E9436
:10169000490305E40E9449030EE40E94490303E55F
:1016A0000E944903089508E410E30E9449030FE4EF
:1016B0000E94490303E40E94490308E40E9449038D
:1016C00008950DE410E30E94490309E40E944903D0
:1016D00004E50E94490304E50E94490308950EE4CD
:1016E00010E30E94490309E40E94490305E40E94B3
:1016F000490304E40E9449030895009131010F70E9
:101700000E9425020C2D10E30E94490300E30E9471
:1017100049030FE30E9449030DE40E944903089521
:1017200002E510E30E94490305E40E94490303E532
:101730000E9449030FE30E94490308950FE310E359
:101740000E9449030FE40E9449030BE40E944903ED
:101750000FE30E944903089501E410E30E94490346
:1017600004E40E94490301E40E94490300E50E9449
:10177000490308950E94CD00F698089505E510E309
:101780000E94490302E50E9449030CE40E944903B8
:1017900001E40E944903089504E410E30E94490310
:1017A00001E40E94490304E50E94490305E40E9404
:1017B0004903089509E410E30E9449030EE40E94DE
:1017C000490303E50E94490304E50E944903089583
:1017D0000CE310E30E9449030CE30E9449030CE36D
:1017E0000E9449030CE30E94490308950FE410E3AB
:1017F0000E94490306E40E94490306E40E9449034B
:1018000003E50E94490308950BE210E30E94490397
:1018100000E30E94490300E40E9449030FE30E9491
:101820004903089504E410E30E94490302E40E947E
:10183000490305E50E94490307E40E94490308950E
:1018400006E410E10E94490309E40E94490302E50D
:101850000E9449030DE40E94490301E00E94250211
:1018600006E510E20E9449030E2D0E9449030D2D4A
:101870000E9449030C2D0E944903089502E510E1DE
:101880000E94490306E40E9449030CE40E944903B4
:1018900008E50E9449030091090110910A010E9484
:1018A00005020F2D10E20E9449030E2D0E944903EC
:1018B0000D2D0E9449030C2D0E944903089502E555
:1018C00010E10E94490305E40E94490307E40E94D5
:1018D00049030CE40E944903009128011091290159
:1018E0000E9405020F2D10E20E9449030E2D0E9456
:1018F00049030D2D0E9449030C2D0E9449030895B0
:10190000003829F0003939F0003A49F0089585E0AF
:10191000A7EAB1E007C086E0A0EBB1E003C087E032
:10192000A9EBB1E0C8E6D1E019E00D9109931A9551
:10193000E1F719978A95C1F708953FB60F931F9362
:1019400000912F01039500932F010A3048F00A30CF
:1019500011F0043150F06F9877986E98769809C01E
:101960006E9876986F9A779A04C06F9877986E9A67
:10197000769A083288F020922F0100912D01109163
:101980002E01011720F4039500932D0105C000914D
:101990006E000D7F00936E001F910F913FBE189552
:1019A000609931C0F29B18953FB6AF93BF93A09159
:1019B0000901B0910A01F19B04C0619905C011961B
:1019C00003C0619B01C01197A0930901B0930A0164
:1019D000F09B10C0B0910B01AB1761F4A0910A010C
:1019E000B0910C01AB1731F4A0911101A064A09348
:1019F00011012B9AA0911101A07CA0931101BF911C
:101A0000AF913FBE18952A982F9828980E94B7004A
:101A10000E94B7020FE410E30E94490306E40E940B
:101A2000490306E40E9449030FE30E9449030E9410
:101A3000A80307E003BF8895FFCF3FB60F931F931E
:101A400008EC0093E40063E0759A19D91F910F9197
:101A50003FBE18953FB60F93009111010F730F33DE
:101A600029F0009111010395009311010F913FBEE0
:101A700018953FB60F931F938F93009133010395F1
:101A800003700093330179F400912C0103950093C6
:101A90002C0100912001002331F00A9500932001D0
:101AA00011F420922C01009123017394701609F017
:101AB0001EC0772404E0009323010AB500680ABD24
:101AC000F3990CC0009118010A950093180131F4A4
:101AD00008E7009318010AB500610ABD603039F0CB
:101AE0006A9529F400EC0093E40075982B988F9187
:101AF0001F910F913FBE1895F39B089502E4009348
:101B00007C0000000000000004EC00937A000091CB
:101B10007A0006FDFCCF04E000937A000091780083
:101B2000109179008FEF93E0801B910B809313014C
:101B300008950AB507FF08950F770ABD00911901AE
:101B40000395009319010C3309F079C02092190113
:101B500000911A01039500931A01009104010A955E
:101B60000093040131F405E00093230103E20093A4
:101B7000040100911A010C3309F061C020921A018E
:101B800000911B01039500931B010AB503FD21C0C1
:101B900000911C010831E8F000911F010630C9F4E2
:101BA00000911D01093019F0023049F012C0009176
:101BB0001B01033071F40A9500931B0107C00091CB
:101BC0001B01023031F4039500931B010AB5086034
:101BD0000ABD00911B01083109F031C00AB5077F29
:101BE0000ABD20921B0100911C01039500931C016A
:101BF00000911F01039500931F01073019F400277E
:101C000000931F0100680E94490410E30E94BE0374
:101C10003FD000911C01011791F420921C0100910A
:101C20001D01039500931D0100911D010C3039F435
:101C300020921D0100911E01039500931E0108953D
:101C400000911D01E0EBFCE1E00FF21DC0901C01D2
:101C5000C394D490E0901E0100911D01023008F45D
:101C6000EA94CD0CCE0CE694E69404E10695069534
:101C7000CE0CC00E04E6C00E07E0C01610F0C01A6D
:101C8000FCCF0C2D015008F406E000931F010895CD
:101C900000911D01ECEBFCE1E00F149100911E019D
:101CA000037029F400911D01013009F41395089582
:101CB0001C1F0205070A0C0F121417191F1C1F1EE8
:101CC0001F1E1F1F1E1F1E1F2A85C666D84F803E5F
:101CD000423110272D1F081936146A10670D000BAA
:101CE0001209850743063C056604B5032403AC02CC
:101CF0000000000000100011002000210100011070
:101D00000111011201130114011501160117011827
:101D100001190120012101220123012401250126AD
:101D20000127012801290130013101320133013439
:101D300001350136013701380139014001410142C5
:101D40000143014401450146014701480149015051
:101D500001510152015301540155015601570158D7
:101D6000015901600161016201630164016501665D
:101D700001670168016901700171017201730174E9
:101D80000175017601770178017901800181018275
:101D90000183018401850186018701880189019001
:101DA0000191019201930194019501960197019887
:101DB000019901A001A101A201A301A401A501A60D
:101DC00001A701A801A902000210022003000310CC
:101DD00003200330034003500400041004110420C6
:101DE0000421043004310500051006000610070028
:101DF00007100720073008000810090009100A0022
:081E00000A100A200A30FFFF5E
:00000001FF
