:020000020000FC
:100000000C9430000C9430000C9440110C94891125
:100010000C9430000C94D6110C9430000C943000E9
:100020000C9430000C9430000C940E110C943000A1
:100030000C9430000C9430000C9430000C94300080
:100040000C9430000C9430000C9430000C94300070
:100050000C9430000C9430000C94AC11F3184BC984
:10006000F89404E00EBF0FEF0DBF222402E01DEF55
:1000700004B915B904E013E10DB91EB900E010EFA1
:1000800000BB11BB0FE000937E000EE00093640004
:10009000B1E0A0E02D92B430E9F707EB0093E50062
:1000A00003E00093E6000EEE0093E70008EC0093F7
:1000B000E40063E001E400937C0003E100937A0034
:1000C00007E000937E0001EF00936C0008E00093CE
:1000D0006B0000E30DBB09E004BD00E007BD03E0D9
:1000E0000093B00001E00093700008E00093B600B8
:1000F000772404E0009328010FEF0093080108EC37
:100100000093290120922A0175986ED153D186D18E
:1001100000913D010D7F00933D0178948AD134D741
:10012000F39B68D4F39BBDD4F39B0E947A09F39BA5
:1001300082D0F39BE4D0F39B9AD1759A0E94B408C5
:100140000E946D1248D565990C94681175980091BC
:100150003D0101FD11D00BB503FDE1CF603021F46D
:1001600003B101780C6705B907E003BF88952F9AA2
:10017000289A06E003BFD3CF0AB500FF08950BB558
:1001800003FF0EC0AAEDB1E010910901A10FB21D4D
:1001900000910B010C93139510930901103231F06B
:1001A000F8940AB50E7F0ABD789408950BB5077FC1
:1001B0000BBD01EF00936C000091DA01013009F0F2
:1001C00008C00091DB01009300010091DC01009365
:1001D0000101009148010F770093480100915C01F3
:1001E0000F7700935C010EEE00933C01D9CF239A68
:1001F00000002B980000000000000000000000003C
:10020000000000002B9A0000000023980BB5086046
:100210000BBD209208012092090109EF00936C00A8
:100220000091480100680093480100915C0100685A
:1002300000935C0108950AB501FD0895F6990895AB
:100240000BB502FD0CC000911E01003009F00895AD
:1002500000911F01E4D100E3C01609F00895AEE655
:10026000B1E00091240110913D0112FF04C00AE0A9
:1002700013FF01C00BE089E0089FA00DB11D109194
:10028000200100911F01EDD10D910F3F19F0C01613
:1002900008F051E00D910F3F19F0C01608F052E040
:1002A0000D910F3F19F0C01608F051E00D910F3F6E
:1002B00019F0C01608F052E00D910F3F19F0C0166A
:1002C00008F051E00D910F3F19F0C01608F052E010
:1002D0000D910F3F19F0C01608F051E00D910F3F3E
:1002E00019F0C01608F052E00D910F3F19F0C0163A
:1002F00008F053E00BB502600B7F0BBD08950BB502
:1003000001FF08950D7F0BBD503031F0513041F0A9
:100310005230B9F0533031F140D54AD554D5089513
:1003200047D551D566D5C0903E01D0903F012BD026
:100330000091290110912A010C151D0519F185D58F
:1003400021C02BD540D560D5C0904001D09041014F
:100350001AD00091290110912A010C151D0591F068
:100360007FD510C025D519D55AD5C0904201D0905F
:10037000430109D00091290110912A010C151D0596
:1003800009F079D5089500913B0150933B01501736
:1003900009F40895C0922901D0922A010895AFE18D
:1003A000B1E010EE80E095E00D9175D113959A952E
:1003B000D9F70895AFE1B1E010EE80E095E062D1A9
:1003C0000D9313959A95D9F70895AEE6B1E010E034
:1003D00080E09CE6CD9056D1C01611F00C2D5BD17B
:1003E00013959A95B9F70895AEE6B1E010E080E074
:1003F0009CE648D10D9313959A95D9F70895AEE3ED
:10040000B1E015EE80E096E0CD903CD1C01611F041
:100410000C2D41D113959A95B9F70895AEE3B1E04B
:1004200015EE80E096E02ED10D9313959A95D9F7AD
:10043000089504E607BD0FEF0093300120922F01CD
:1004400005B3026005BB00916E00026000936E0070
:1004500000916E0001FDFCCF0FEF00931A01209276
:1004600013012092140120921801F39A08950AB5FD
:1004700004FF0895839A8B9A03E400937C000000A4
:100480000000000004EC00937A0000917A0006FD61
:10049000FCCF009178001091790000932601109311
:1004A000270101E400937C0000000000000004EC40
:1004B00000937A0000917A0006FDFCCFF8940AB50B
:1004C0000F7E0ABD789483988B9804E000937A009D
:1004D00000917800109179000093060110930701B4
:1004E00080913D0181FF01C05FC080EE882E8EE2C9
:1004F000982E8091260190912701801B910B199DC8
:100500007001089D6001189DD00CE11CF21C909EAA
:10051000D00CE11CF21C21E000271127C81AD90ACF
:10052000E208F20818F0020F121DF8CFF6E2E2EA34
:100530008591959132978017910718F4CC24DD248A
:100540002FC022E38EECC82E8FEFD82E8591959187
:100550008030920541F08017910748F0E82EF92E7F
:10056000C20ED21CF3CF0FEFC02ED02E19C0EF92C7
:10057000FF92E81AF90A81E0882E88279927E21A63
:10058000F20818F0880D921DFACF21E0FF90EF904D
:10059000E81AF90AE016F1061CF0C20ED21CF8CFD8
:1005A000C0920001D0920101F39B7FD00E942812DB
:1005B0000895102F107F1295D12E10E3D10E1AE35B
:1005C000D11610F017E0D10E102F1F70C12E10E3BE
:1005D000C10E1AE3C11610F017E0C10E0895CC2425
:1005E000DD24EE24FF24083E83E0180720F0085E97
:1005F0001340F394F8CF043680E0180720F0045637
:100600001040E394F8CF0A3018F00A50D394FBCF8F
:10061000C02E00E3F00EE00ED00EC00E0895CC24E4
:10062000DD24EE24043618F00456E394FBCF0A30A0
:1006300018F00A50D394FBCFC02E00E3E00ED00E8A
:10064000C00E0895EE24DD24CC240C3318F00C5396
:10065000E394FBCF063018F00650D394FBCFC02EA6
:10066000ECCF86E0189FC02C0A3018F00A50C394D3
:10067000FBCF0895CC24063018F00650C394FBCF6E
:100680000C2D0895F999FECFF89482BD11BDF89A0A
:1006900000B578940895F999FECFF89482BD11BD04
:1006A00000BDFA9AF99A789408950091000110918A
:1006B0000101C0900201D090030100930201109348
:1006C0000301E0900401E09205010C191D0900935B
:1006D000040180E019F082E00AF081E00E0D0AF4D6
:1006E0000195003009F40395C02E04E0C01608F00F
:1006F000C02E0091000110910101D0902901E090DD
:100700002A010D191E096AF094E10F301205C0F498
:1007100098E006301205A0F494E00230120580F44F
:100720000EC01095019598E10F30120548F490E144
:100730000630120528F49CE00230120508F490E01F
:10074000980F90933801E8EAF3E0E90FF21D09945D
:100750001BC01DC01FC021C021C023C026C01DC09A
:1007600028C029C02CC019C02DC02EC031C015C052
:1007700033C034C036C011C038C03AC03CC00DC010
:100780003DC03FC041C009C020922D010895209274
:100790002D01089520922D010895089583E037C01A
:1007A00008958AE08C9D802D32C08AE08C9D802D3A
:1007B00049C08AE02CC084E18C9D802D28C0209205
:1007C0002D01089583E03EC08AE08C9D802D1FC0DE
:1007D0008AE08C9D802D36C08AE034C020922D01A5
:1007E000089584E18C9D802D2DC082E310C0089572
:1007F00084E60DC0089582E30AC0089582E322C012
:10080000089582E31FC0089584E61CC008950091F6
:100810003D0100FD1BC020922D010091130110919C
:100820001401081B1209009313011093140120F402
:1008300020921301209214010091170106FD0895E2
:10084000F19A28C000913D0100FDE5CF20922D01D5
:100850000091130110911401080F121D0093130150
:1008600010931401C0901501D0901601C01AD10A3E
:1008700062F4009115011091160100931301109379
:100880001401C1948C1908F408950091170107FD13
:100890000895F19880932D01F2990895F09A0091AE
:1008A0001701007C0093170180931101209212011F
:1008B00008951AB511FF12D211FFEFD111FDF8D131
:1008C00011FD01D2089572D0AEE6B1E0009124018D
:1008D00010913D0112FF04C00AE013FF01C00BE0BC
:1008E00089E0089FA00DB11DA0933601B093370198
:1008F00084E090E00D91BEDE091721F093959831C8
:10090000C9F0FACF0E9111961C910117B0F4092F7E
:10091000006810E371D10D910A95ACDE03950917BB
:1009200049F00F93092F006810E366D10F9193955A
:100930009831A9F78A95E9F608951196FBCF0C91A5
:100940000F9334D084E0A0913601B091370190E04C
:100950000D9190DE091721F093959831C9F0FACFE7
:100960000E9111961C910117F8F4092F006810E3FD
:1009700043D10D910A957EDE0395091749F00F9337
:10098000092F006810E338D10F9193959831A9F79A
:100990008A95E9F60F916EDE0F9310E22DD10F913B
:1009A000006810E129D108951196F2CF20924701F5
:1009B00020925B0120924C01209260010091510134
:1009C0000078009351010091650100780093650162
:1009D000009156010F7B0093560100916A010F7B35
:1009E00000936A010895A6E4B1E018E22D921A95E9
:1009F000E9F70895F699089500912501002301F182
:100A0000053009F04DC00091290110912A01E7DD60
:100A10000E2D003309F40FE310E174D00D2D72D0C8
:100A20000C2D70D000E46ED0CCD000914D010F772A
:100A300000934D01009161010F77009361011CC08B
:100A400000913401002361F500912E010770003000
:100A5000D1F2013029F50091000110910101BFDDB3
:100A60000E2D003309F40FE310E34CD00D2D4AD0C6
:100A70000C2D48D000E446D0009156010F7700932A
:100A8000560100916A010F7700936A0100914D01B0
:100A9000006800934D0100916101006800936101BD
:100AA0000895F699089500912501003051F50091BF
:100AB0003401002331F500912E010770043009F54F
:100AC00000914D010F7700934D01009161010F7767
:100AD0000093610100912001A2DD0D2D003309F486
:100AE0000FE310E30FD00C2D0DD000911F0197DD07
:100AF0000D2D08D00C2D06D00091560100680093F2
:100B0000560108950053CF92DF92EF93FF93AF9376
:100B1000BF931F93912F107F1295113029F012303F
:100B200039F0133049F012C0A6E4B1E018D00EC07D
:100B3000AAE5B1E014D00AC0A6E4B1E00F939F93F8
:100B40000ED0AAE5B1E09F910F9109D01F911395A6
:100B5000BF91AF91FF91EF91DF90CF900895FFE0AB
:100B6000E6E082E0089FE00DF11DD590C490FEE024
:100B7000EEEC8EE09F70989FE00DF11D9EE0C0FAB4
:100B8000D694C7941591012F187F16951695169532
:100B9000AF93BF93A10FB21D8C91102F177001E07E
:100BA000103019F0000F1A95FBCF26F00095802326
:100BB0008C9302C0802B8C93BF91AF919A95F9F6DC
:100BC00008950FE310E29EDF0FE39CDF0FE39ADF4F
:100BD0000FE398DF089514E10091340101FD03C093
:100BE000A6E4B1E002C0AAE5B1E0CCEED0E00D9100
:100BF00009931A95E1F70895EF93FF93ECE5FFE071
:100C000009C0EF93FF93FFE0E4E704C0EF93FF9385
:100C1000ECE7FFE0AF93BF931F938F93107F129584
:100C2000113029F0123039F0133049F012C0A6E427
:100C3000B1E016D00EC0AAE5B1E012D00AC0A6E419
:100C4000B1E00F93EF93FF930BD0FF91EF910F91D2
:100C5000F2CF8F911F91BF91AF91FF91EF910895C6
:100C600007FB0F71E00FF21D1591012F187F1695EC
:100C700016951695A10FB21D8C91102F177001E0DB
:100C8000103019F0000F1A95FBCF26F00095802345
:100C90008C930895802B8C930895009150010160EE
:100CA0000093500100916401016000936401089574
:100CB000009150010E7F00935001009164010E7F5E
:100CC000009364010895009155010160009355015E
:100CD0000091690101600093690108950091550137
:100CE0000E7F00935501009169010E7F0093690109
:100CF00008950091560100680093560100916A0121
:100D0000006800936A010895009156010F770093DF
:100D1000560100916A010F7700936A0108950091CE
:100D20004D01006800934D0100916101006800933E
:100D30006101089500914D010F7700934D010091DD
:100D400061010F77009361010895009156011091A0
:100D50006A010F73107C102B10936A0100915101EE
:100D60001091650100781F77102B1093650108958D
:100D700080915601807C8093560180916A01807C2D
:100D800080936A01809151018F7780935101809106
:100D900065018F77809365010895009149010E7F69
:100DA0000093490100915D010E7F00935D0108955C
:100DB00000914E010E7F00934E01009162010E7F63
:100DC000009362010895009153010E7F0093530137
:100DD000009167010E7F00936701089500914B0118
:100DE0000E7F00934B0100915F010E7F00935F0126
:100DF00008950091490101600093490100915D014E
:100E0000016000935D01089500914E01016000931F
:100E10004E0100916201016000936201089500910A
:100E20005301016000935301009167010160009339
:100E30006701089500914B01016000934B010091FF
:100E40005F01016000935F010895009149010E7FE9
:100E50000093490100915D01016000935D010895D7
:100E600000914E010E7F00934E01009162010160DE
:100E7000009362010895009153010E7F0093530186
:100E800000916701016000936701089500914B0193
:100E90000E7F00934B0100915F01016000935F01A1
:100EA00008950091460101600093460100915A01A6
:100EB000016000935A010895009146010E7F00934E
:100EC000460100915A010E7F00935A0108957E7CDD
:100ED0002C05077F2F5557567D2D2E067B79010255
:100EE00004542B5153527A292A03898B3B121088C0
:100EF000386260618A3A39118C8E161513633C662C
:100F000064658D3E3D14243F040600DB008F00E63F
:100F100000ED00FD140100FF00EF00C022000C00F6
:100F200000C81100000000E300F7128F0039120F13
:100F30000079007100BD00F61209001E0C70003827
:100F400005360936003F00F3083F08F300ED1201B3
:100F5000003E243028362D00150024095830080999
:100F600031595A320A0B335B5C340C0D355D865EA9
:100F7000360E0F378081828384855F000050782889
:100F80001718406890678F00F39B0895F19B3DC050
:100F90000091110110911201083681E0180781F4C7
:100FA0000E9452128091190180931A01809151017F
:100FB000816080935101809165018160809365011A
:100FC0008091190190911A01891B08F488278A30B1
:100FD000E0F000914C0100FD12C080911901809356
:100FE0001B01209213012092140100914C01016019
:100FF00000934C010091600101600093600100E1E9
:1010000010E00093110110931201F29908951091CC
:101010001801103041F0123031F11430F9F116306E
:1010200009F008955FC0F198F09A20921701139586
:10103000109318010CE310E165DD0FE363DD0CE3B1
:1010400061DD0FE35FDD0FE310E25CDD0CE35ADDF1
:101050000FE358DD0CE356DD00E1009312010FEFC2
:1010600000931B0108950AB502FD26C0F49B089564
:10107000F49800910D010430D1F704E000931801B9
:1010800001E410E33FDD04E43DDD01E43BDD00E588
:1010900039DD20921301209214010895F19AF09AFB
:1010A000209217011395109318010CE711E000939B
:1010B000110110931201089504E00093180104E453
:1010C00010E320DD05E41EDD03E51CDD03E41ADD8D
:1010D0002092130120921401F8940AB50B7F0ABDE7
:1010E0007894089520921801009151010E7F009389
:1010F0005101009165010E7F0093650100914C0143
:101100000E7F00934C01009160010E7F00936001FF
:10111000009113011091140104511209009315015B
:1011200010931601209213012092140108E20093FB
:101130001D012092250120922E01209234010E944F
:101140000D13006815DE10E35CDD0AB501FFBBDBA3
:101150000AB501FFA6DEADDBF39803E000933C0186
:101160000BB504600BBD0895009117010F730E318C
:1011700058F0F298729800911701007C21F02092AB
:101180001101209212010895F09B0895F19B0EC069
:101190000E945212009117010F73809119019091D2
:1011A0001B01891B08F48827883228F40091170155
:1011B0000F730A3078F0F1990064F19B0068009396
:1011C000170106FF32C0F39930C02092130120921C
:1011D00014012BC000911101109112010030120571
:1011E00021F1F2990895729A08EC0093E40063E00B
:1011F000759AF19B0DC0009117010F7700931701AD
:101200006F987798000000006E9A769AF29A089587
:10121000009117010F7B009317016E9876980000DC
:1012200000006F9A779AF29A0895F09B08956E984D
:1012300076986F987798F098F39B0895009118012D
:10124000013091F409E410E15DDC0EE45BDC03E5C0
:1012500059DC04E557DC0FE310E254DC0FE452DC08
:101260000BE450DC0FE34EDC009118010395009372
:101270001801089503B10095017F02950871069544
:101280000695069510910F01102B110F110F1C736D
:1012900010930F01143071F0183361F0183089F099
:1012A000143379F000911001007C003889F000348B
:1012B000C1F00895009110010F73006800931001B0
:1012C0000895009110010F730064009310010895B8
:1012D0001C3119F0103209F0089503E00093100159
:1012E00008951C3219F0103109F0089502E00093BE
:1012F000100108950091100101FD45C0F49B08956F
:10130000F49800910D01013019F00430B9F10895FD
:10131000F6990BC0F69A2092330120923201F4DC48
:1013200009DD44DB00E07CD0089503E510E1EADB51
:1013300004E5E8DB0FE4E6DB02E5E4DB03E510E2CD
:10134000E1DB04E5DFDB0FE4DDDB02E5DBDB3DD8E1
:1013500056D801E00093250103E000933401009189
:101360002401006805DD10E34CDC0BB504600BBD07
:101370000AB501FFA8DAF698F7980895F69B089544
:1013800003E04ED008950D7F0093100100FD0FC0C3
:10139000F6990AC033D00091000110910101009329
:1013A000020110930301089501E03AD00895F699DF
:1013B0000AC00CD0009100011091010100930201BC
:1013C00010930301089502E02BD0089500912901A4
:1013D00010912A0181E0043F180749F085E0080FC9
:1013E000121D0093290110932A01809325010AE020
:1013F00000931D010BB504600BBD089500912901F8
:1014000010912A0180E00832180789F3055012096B
:101410000093290110932A0185E080932501E7CFED
:1014200064E1F799B9C0003051F0013029F0023081
:1014300021F0033019F0089555C07AC098C04427B0
:10144000ECECF6E290913301809132011591059117
:101450000817190711F400279FC01F3F11F043958B
:10146000F5CF00913201003071F10F7099F410E165
:1014700000913201003141F0F59B04C0010F39F4B5
:10148000010F05C0011B19F4209232010895009349
:101490003201D5CF009132010F70013049F0F59B38
:1014A00005C003950F7039F4039505C00A9519F42A
:1014B00020923201089510913201107F0F70102B8D
:1014C00010933201BCCF009133010F3F29F02092DD
:1014D000330120923201B3CF0AE00093330120920E
:1014E0003201ADCFF59800913201007FD9F0009123
:1014F00032010F7071F0009132010A950F7009F4FA
:101500000A9510913201107F0F70102B1093320149
:1015100096CF0091320110E1011B09F4011B0093E9
:1015200032018DCF009133010A950093330187CFAB
:10153000F59A00913201007FA1F0009132010F7005
:1015400039F00091320103950F70D9F60395D9CF88
:101550000091320110E1010F09F4010F00933201F3
:101560006ECF0091330103950093330168CF009152
:101570003201007F29F0009132010F7039F0089597
:1015800000913201005F0093320159CF0091320186
:101590000F5F0093320153CFE1EDFAE0E40FF21D4B
:1015A00009949DC0A6C0B0C0BDC0C7C0CEC0D7C042
:1015B000A4C131C235C22FC233C22DC231C22BC227
:1015C00034C2DEC09AC127C22BC225C229C223C29F
:1015D00027C221C22AC2E3C090C11DC221C21BC2C0
:1015E0001FC219C21DC217C220C2E8C086C113C2E1
:1015F00017C211C215C20FC213C20DC216C2EDC06E
:101600007CC109C20DC207C20BC205C209C203C216
:101610000CC2F2C072C1FFC103C2FDC101C2FBC155
:10162000FFC1F9C102C2F7C068C1F5C1F9C1F3C178
:10163000F7C1F1C1F5C1EFC1F8C1FCC05EC1EBC19A
:10164000EFC1E9C1EDC1E7C1EBC1E5C1EEC109C11F
:1016500054C1E1C1E5C1DFC1E3C1DDC1E1C1DBC10D
:10166000E4C118C14AC1D7C1DBC1D5C1D9C1D3C1F9
:10167000D7C1D1C1DAC12BC140C1CDC1D1C1CBC10C
:10168000CFC1C9C1CDC1C7C1D0C1D4C1DDC10EC296
:101690003EC278C285C2B3C2F0C230C368C3A3C31E
:1016A000B0C3D9C3BCC3D7C3C8C3D5C3E7C3F4C38E
:1016B00003C410C413C420C42FC436C445C44DC4CD
:1016C0005CC464C471C480C489C498C4A1C4AEC4D9
:1016D000BBC4C8C4E5C403C523C543C561C50DE487
:1016E00010E310DA0FE40EDA04E40CDA05E40ADAA7
:1016F00008950DE410E106DA01E404DA0EE402DAFA
:1017000005E500DA5EDA0895F8940AB502600ABDCC
:101710007894CFD8D8DA50E00BB502600BBD46D92B
:10172000CBDB03CE01E410E1EDD905E5EBD904E50F
:10173000E9D90FE4E7D945DA0895F8940AB50D7FA1
:101740000ABD7894B6D8ADDBF0CD00E510E3DAD968
:1017500002E5D8D90FE4D6D907E4D4D9089504E531
:1017600010E1D0D901E4CED907E4CCD901E3CAD93C
:1017700035DB27DA00E8FCDA10E143DA17D90895FF
:1017800004E510E1BFD901E4BDD907E4BBD902E308
:10179000B9D901E8EDDA10E134DA08D9089504E5A1
:1017A00010E1B0D901E4AED907E4ACD903E3AAD97A
:1017B00002E8DEDA10E125DAF9D8089504E510E14F
:1017C000A1D901E49FD907E49DD904E39BD903E89B
:1017D000CFDA10E116DAEAD8089504E510E192D9DB
:1017E00001E490D907E48ED905E38CD904E8C0DA86
:1017F00010E107DADBD8089504E510E183D901E4AC
:1018000081D907E47FD906E37DD905E8B1DA10E193
:10181000F8D9CCD8089504E510E174D901E472D95F
:1018200007E470D907E36ED906E8A2DA10E1E9D936
:10183000BDD8089504E510E165D901E363D90AE351
:1018400061D905E35FD900E893DA10E1DAD901E85C
:10185000D8D902E8D6D903E8D4D904E8D2D9A6D891
:10186000089504E510E14ED901E34CD90AE34AD9C1
:1018700006E348D900E87CDA10E1C3D901E8C1D910
:1018800002E8BFD903E8BDD904E8BBD905E8B9D956
:101890008DD8089596D9A2DA04E510E133D901E391
:1018A00031D90AE32FD907E32DD900E861DA10E135
:1018B000A8D901E8A6D902E8A4D903E8A2D904E886
:1018C000A0D905E89ED906E89CD970D8089510E102
:1018D00005E518D902E516D90AE314D90FE312D9A0
:1018E00047DA10E20CE40ED901E40CD905E50AD977
:1018F00002E408D9CBDA5AD80895F79A0F9325DA7B
:1019000062DA56DA76DAF5D9AEE6B1E00091320164
:101910000151102F0F70107F129589E0189FA00DB4
:10192000B11DA0933601B0933701A00FB21D1C91D9
:101930000F91013031F0023049F0033009F00AC054
:1019400032C01A951E3F31F41FE804C013951039B8
:1019500009F41FEF1C931F3F99F0012F0E942203EF
:101960000E2D003309F40FE310E1CCD80D2DCAD8A9
:101970000C2DC8D800E3C6D824D90E949F0408952E
:101980000AE310E1BFD80AE3BDD80AE3BBD80AE3F3
:10199000B9D810E20FE3B6D80FE3B4D80FE3B2D84A
:1019A0000FE3B0D80895B0D9F798009132010170D3
:1019B000C1F40E910F3FA9F411960D910F3F89F4D8
:1019C000009132010F7008501FEF003019F01D9385
:1019D0000395FBCF00913201007F085F0093320135
:1019E000D5CD009132010F70093009F0CFCDF6D975
:1019F000EAD900913201007F003B18F4003808F06A
:101A0000F0D300913201007F00933201003B11F4CA
:101A100020923201B5CDF79A0F93BFD9F5D973CF84
:101A2000F79A0F93C5D9E5D96ECFF79A0F93C0D91E
:101A3000F6D969CF04E510E365D805E463D80DE471
:101A400061D800E55FD80895F79AA0913E01B09162
:101A50003F01013029F0023051F0033029F10EC06E
:101A60001597A832B20550F4A8E2BB2707C0159617
:101A700081E0A43FB80710F0A4EFB1E0A0933E01CD
:101A8000B0933F018D010E94EF020E2D10E13AD874
:101A900046D90D2D37D80C2D35D800E433D891D840
:101AA00087D991D9A6D90895F7986ACDF79AA091C8
:101AB0004001B0914101013029F0023051F0033072
:101AC00021F10EC01597A832B20550F4A8E2BB2749
:101AD00007C0159681E0A43FB80710F0A4EFB1E06D
:101AE000A0934001B09341018D010E94EF020E2DA1
:101AF00010E108D814D90D2D05D80C2D03D800E419
:101B000001D85FD84AD980D90895F79839CDF79A86
:101B1000A0914201B0914301013029F0023051F00F
:101B2000033041F10EC01597A832B20550F4A8E277
:101B3000BB2707C0159681E0A43FB80710F0A4EFBB
:101B4000B1E0A0934201B09343018D010E94EF02E6
:101B50000E2D10E10E948205E2D80D2D0E94820513
:101B60000C2D0E94820500E40E9482052AD820D90B
:101B700056D90895F798209232010FD919D923D94F
:101B8000D9D85DCC0AE510E30E94820505E40E94E5
:101B9000820509E40E94820504E50E9482050895F9
:101BA000F79A10912301013029F0023041F00330FF
:101BB00021F109C01A951F3F31F413E604C01395B3
:101BC000143609F4112710932301012F0E940F03EB
:101BD00002E310E10E94820500E30E9482050D2DC0
:101BE0000E9482050C2D0E9482050E94E10515D5F8
:101BF0000068BED810E305D80895F798C1CCF79ACD
:101C000010912201013029F0023041F0033099F1A6
:101C100009C01A951F3F31F41BE004C013951C3016
:101C200009F41127109322010091210103950E94CC
:101C30000F030D2D10E30E9482050C2D0E948205DA
:101C40006ED80FE312E20E9482050FE30E94820524
:101C50000091220103950E940F030D2D12E10E94B5
:101C600082050C2D0E948205D8D4006881D810E32B
:101C70000E9401060895F79883CCF79A809121017C
:101C8000013029F0023051F00330A9F10CC0EDD43D
:101C90008A958F3F41F4812F8A9505C0E6D48395BC
:101CA000811709F488278093210100912101039570
:101CB0000E940F030D2D10E10E9482050C2D0E9441
:101CC00082050FE310E20E9482050FE30E94820565
:101CD0000091220103950E940F030D2D12E30E9433
:101CE00082050C2D0E94820598D4006841D810E32B
:101CF0000E9401060895F7981DD842CCF79A1091DA
:101D00002001013029F0023041F0033071F109C0A7
:101D10001A951F3F31F417E104C01395183109F4E7
:101D2000112710932001012F0E940F030D2D003366
:101D300009F40FE310E10E9482050C2D0E94820538
:101D40000FE310E20E9482050FE30E9482050E94C9
:101D5000790600911F010E940F030D2D12E30E94CE
:101D600082050C2D0E9482050895F79809CCF79AF8
:101D700010911F01013029F0023041F0033069F168
:101D800009C01A951F3F31F41BE304C013951C339F
:101D900009F4112710931F01009120010E940F03E5
:101DA0000D2D003309F40FE310E30E9482050C2D82
:101DB0000E94820500911F010E940F030D2D12E168
:101DC0000E9482050C2D0E9482050FE312E20E9400
:101DD00082050FE30E9482050895F7982092320150
:101DE0000E9484062CCB06E410E30E94820505E4E1
:101DF0000E9482050EE40E94820503E50E9482058E
:101E0000089508E410E30E9482050FE40E94820511
:101E100003E40E94820508E40E94820508950DE40F
:101E200010E30E94820509E40E94820504E50E94F5
:101E3000820504E50E94820508950EE410E30E94E5
:101E4000820509E40E94820505E40E94820504E4FB
:101E50000E9482050895009132010F700E940F03C5
:101E60000C2D10E30E94820500E30E9482050FE31F
:101E70000E9482050DE40E948205089502E510E3A8
:101E80000E94820505E40E94820503E50E94820506
:101E90000FE30E94820508950FE310E10E9482057E
:101EA0000FE40E9482050BE40E9482050FE30E946A
:101EB00082050E94E105089501E410E30E94820575
:101EC00004E40E94820501E40E94820500E50E946C
:101ED000820508950E941902F698089505E510E319
:101EE0000E94820502E50E9482050CE40E948205A0
:101EF00001E40E948205089505E510E10E94820533
:101F000002E50E9482050CE40E94820501E30E9422
:101F100082050E94E105089500913D01046000934F
:101F20003D010E941A0701CA05E510E10E948205E1
:101F300002E50E9482050CE40E94820502E30E94F1
:101F400082050E94E105089500913D01046008604A
:101F500000933D010E941A07E8C905E510E10E94BF
:101F6000820502E50E9482050CE40E94820500E3DE
:101F70000E9482050E94E105089500913D010B7FBA
:101F8000077F00933D010E94EE06CFC906E510E3EE
:101F90000E94820505E40E9482050EE40E948205EB
:101FA00004E50E94820508950EE410E10E94820576
:101FB0000FE40E94820502E50E9482050DE40E9462
:101FC00082050E94E105089500913D010E7F009376
:101FD0003D010E94D6040E945C07A7C909E410E1F4
:101FE0000E9482050EE40E94820506E50E94820599
:101FF00005E40E9482050E94E105089500913D01DB
:10200000016000933D010E94D6040E945C078DC9C7
:102010000FE410E30E94820506E40E94820506E4B4
:102020000E94820503E50E94820508950BE210E3F9
:102030000E94820500E30E94820500E40E9482055E
:102040000FE30E948205089504E410E30E948205D4
:1020500002E40E94820505E50E94820507E40E94D1
:102060008205089506E410E10E94820509E40E94B9
:10207000820502E50E9482050DE40E94820507E0C8
:102080000E940F0306E510E20E9482050E2D0E94B9
:1020900082050D2D0E9482050C2D0E948205089557
:1020A00006E410E10E94820505E50E9482050AE52A
:1020B0000E9482050AE50E948205009138010E9473
:1020C0000F030FE310E20E9482050FE30E948205D6
:1020D0000D2D0E9482050C2D0E948205089500E5B9
:1020E00010E10E9482050FE40E94820503E50E9430
:1020F000820509E40E9482050091130110911401E8
:102100000E94EF020F2D10E20E9482050E2D0E9408
:1021100082050D2D0E9482050C2D0E9482050895D6
:1021200006E510E10E94820504E50E9482050FE4A5
:102130000E94820500E50E94820500911501109120
:1021400016010E94EF020F2D10E20E9482050E2D53
:102150000E9482050D2D0E9482050C2D0E94820591
:10216000089502E510E10E94820507E50E948205BC
:1021700001E40E94820509E50E94820500912D017B
:102180000E940F030FE310E20E9482050E2D0E94B1
:1021900082050D2D0E9482050C2D0E948205089556
:1021A00006E510E10E94820502E40E94820501E436
:1021B0000E94820504E50E94820500913901109178
:1021C0003A010E94EF020F2D10E20E9482050E2DAF
:1021D0000E9482050D2D0E9482050C2D0E94820511
:1021E0000895003829F0003939F0003A49F008958F
:1021F00085E0ADEAB1E007C086E0A6EBB1E003C040
:1022000087E0AFEBB1E0CEE6D1E019E00D910993A4
:102210001A95E1F719978A95C1F708953FB60F937C
:102220001F9300913101039500933101033040F079
:1022300011F0063050F06F9877986E98769809C034
:102240006E9876986F9A779A04C06F9877986E9A7E
:10225000769A0F3088F02092310100912F01109171
:102260003001011720F4039500932F0105C0009160
:102270006E000D7F00936E001F910F913FBE189569
:10228000F29B189563E03FB6AF93BF93639917C075
:10229000F39B09C0A0911301B09114011196A09372
:1022A0001301B0931401A0911101B0911201A0305B
:1022B000B20529F01197A0931101B0931201A091DA
:1022C0001701A07CA0931701BF91AF913FBE189555
:1022D00075982F98289820927A006E9876986F9823
:1022E000779872980E94CF010E94F3040FE410E3E4
:1022F0000E94820506E40E94820506E40E9482058F
:102300000FE30E9482050E94EB0507E003BF88955A
:10231000FFCF3FB60F931F931B9914C088941A994F
:10232000089400910A01079500930A011091080191
:10233000139510930801177029F400930B010AB547
:1023400001600ABD08EC0093E40063E00E943A09D2
:102350001F910F913FBE18953FB60F931F9303B186
:102360000095017F02950770003079F010910E0101
:1023700000930E0101130CC03F3F51F033953530EF
:1023800039F400930D01F49A03C0332720920E0113
:10239000009117010F730F3329F000911701039576
:1023A000009317011F910F913FBE18953FB60F93F1
:1023B0001F938F93009134010395037000933401B0
:1023C00079F400912E01039500932E0100912501CF
:1023D000002331F00A950093250111F420922E017B
:1023E000F3990EC000913D0101FF0AC000913C012C
:1023F000003031F00A9500933C0111F40E94F7007F
:10240000009128017394701609F01DC0772404E030
:10241000009328010AB500680ABDF3990CC0009129
:102420001D010A9500931D0131F404EB00931D0179
:102430000AB500610ABD603031F06A9521F400EC04
:102440000093E40075988F911F910F913FBE1895EE
:102450000EE500937C0000000000000004EC0093F7
:102460007A0000917A0006FDFCCF04E000937A0028
:1024700000917800109179000093390110933A018E
:1024800082E00231180768F009E810E10E940606B0
:102490000091390110913A0182E00033180708F0E9
:1024A00017CF089502E400937C00000000000000B4
:1024B00004EC00937A0000917A0006FDFCCF04E062
:1024C00000937A0000917800109179008FEF93E0EB
:1024D000801B910B8093190108950AB507FF089599
:1024E000F8940AB50F770ABD789400911E01039500
:1024F00000931E010C3309F082C020921E0100914E
:102500001F01039500931F0100911F010C3309F077
:1025100076C020921F0100912001039500932001B5
:1025200000912401043049F4009120010B3029F47A
:10253000F8940AB504600ABD78940AB503FD23C077
:10254000009121010831F8F0009124010630D9F4FE
:1025500000912201093019F0023049F014C00091B5
:102560002001033081F40A950093200107C00091F7
:102570002001023041F4039500932001F8940AB53C
:1025800008600ABD789400912001083109F037C035
:10259000F8940AB5077F0ABD789420922001009133
:1025A00021010395009321010091240103950093DB
:1025B0002401073019F400270093240100680E94C9
:1025C000B80610E30E9401060AB501FF0E946304E9
:1025D0004CD000912101011791F42092210100912A
:1025E0002201039500932201009122010C3039F45D
:1025F00020922201009123010395009323010AB543
:1026000002FF0AC0F39908C00E9484060E949A063D
:102610000E94D6040E941902089500912201EAE85E
:10262000F6E2E00FF21DC0902101C394D490E09037
:10263000230100912201023008F4EA94CD0CCE0C63
:10264000E694E69404E106950695CE0CC00E04E6E9
:10265000C00E07E0C01610F0C01AFCCF0C2D0150C0
:1026600008F406E000932401089500912201E6E9B0
:10267000F6E2E00F149100912301037029F4009118
:102680002201013009F4139508951C1F0205070A61
:102690000C0F121417191F1C1F1E1F1E1F1F1E1F99
:1026A0001E1F2A85C666D84F803E423110272D1F37
:1026B000081936146A10670D000B120985074306C6
:1026C0003C056604B5032403AC02000000000010C2
:1026D000001100200021010001100111011201135D
:1026E000011401150116011701180119012001211A
:1026F00001220123012401250126012701280129A6
:102700000130013101320133013401350136013725
:1027100001380139014001410142014301440145B1
:10272000014601470148014901500151015201533D
:1027300001540155015601570158015901600161C9
:102740000162016301640165016601670168016955
:1027500001700171017201730174017501760177D5
:102760000178017901800181018201830184018561
:1027700001860187018801890190019101920193ED
:1027800001940195019601970198019901A001A179
:1027900001A201A301A401A501A601A701A801A905
:1027A00001B001B101B201B301B401B501B601B785
:1027B00001B801B902000210022002300300031028
:1027C00003200330034003500400041004110420CC
:1027D000042104300431050005100600061007002E
:1027E00007100711072007210730073108000810DC
:1027F000081108200821090009100A000A100A20FF
:0A2800000A300A400A500A60FFFF88
:00000001FF
